:020000040800F2
:1000000010F8012B11F8013B012A28BF9A42F7D0C2
:10001000D01A704700F1340191E838009C46A6469A
:100020004CF8045D90E8FF0FE54600BD90EC210B15
:10003000704700BF80EC210B704700BF90EC200B95
:10004000704700BF80EC200B704700BFD0EC200B46
:10005000704700BFC0EC200B704700BFF0EC0201FE
:10006000F0EC0211F0EC0221F0EC0231F0EC024174
:10007000F0EC0251F0EC0261F0EC0271F0EC028164
:10008000F0EC0291F0EC02A1F0EC02B1F0EC02C154
:10009000F0EC02D1F0EC02E1F0EC02F1704700BFAD
:1000A000E0EC0201E0EC0211E0EC0221E0EC0231B4
:1000B000E0EC0241E0EC0251E0EC0261E0EC0271A4
:1000C000E0EC0281E0EC0291E0EC02A1E0EC02B194
:1000D000E0EC02C1E0EC02D1E0EC02E1E0EC02F184
:1000E000704700BFB0FC0181B0FC0191B0FC01A1E0
:1000F000B0FC01B1704700BFA0FC0181A0FC0191E0
:10010000A0FC01A1A0FC01B1704700BFEC4600B506
:100110002DE900502DE9FF1F4FF000032DE90C00E1
:1001200001A901F069F9DDF840E012B0704700BFA5
:10013000EC4600B52DE900502DE9FF1F4FF00003FC
:100140002DE90C0001A901F08EF9DDF840E012B0B4
:10015000704700BFEC4600B52DE900502DE9FF1FA8
:100160004FF000032DE90C0001A901F09CF9DDF826
:1001700040E012B0704700BFEC4600B52DE90050DA
:100180002DE9FF1F4FF000032DE90C0001AB01F03A
:1001900060F9DDF840E012B0704700BFEC4600B5F2
:1001A0002DE900502DE9FF1F4FF000032DE90C0051
:1001B00001AA01F0CAF9DDF840E012B0704700BFB3
:1001C00010B5054C237833B9044B13B10448AFF391
:1001D00000800123237010BD60000020000000009B
:1001E000541F000808B5034B1BB103490348AFF384
:1001F000008008BD0000000064000020541F0008BB
:1002000080B582B000AF7860786800F02FF87B6826
:1002100018460837BD4680BD80B582B000AF786013
:100220007B68184600F012F87B6818460837BD4610
:1002300080BD80B582B000AF78607B681846FFF75C
:10024000EBFF7B6818460837BD4680BD80B582B09D
:1002500000AF7860786800F02EF87B68184600F0F0
:1002600036F87B6818460837BD4680BD80B582B039
:1002700000AF7860786800F03DF87B681846083772
:10028000BD4680BD80B582B000AF78607B681968DC
:100290007B689A687B681B68D31A9B101A4678683B
:1002A00000F032F87B681846FFF7AAFF7B68184613
:1002B0000837BD4680BD80B582B000AF78607868F1
:1002C00000F035F87B6818460837BD4680BD80B41D
:1002D00083B000AF78607B6800221A607B680022E0
:1002E0005A607B6800229A607B6818460C37BD46CE
:1002F00080BC704780B483B000AF78607B681846DC
:100300000C37BD4680BC704780B584B000AFF86044
:10031000B9607A60BB68002B05D0FB687A68B96861
:10032000184600F00EF800BF1037BD4680BD80B4FF
:1003300083B000AF78607B6818460C37BD4680BC40
:10034000704780B584B000AFF860B9607A607A68B1
:10035000B968F86800F004F800BF1037BD4680BDEA
:1003600080B584B000AFF860B9607A60B86800F01A
:100370007CF800BF1037BD4680BD000080B582B05C
:1003800000AF786039607B68012B0CD13B684FF679
:10039000FF72934207D10648FFF74BFF054A064913
:1003A000034800F05DF800BF0837BD4680BD00BFC0
:1003B0007C00002000000020BD030008B0B582B022
:1003C00000AF78607B681C687B685D687B68184656
:1003D00000F00FF803461A462946204600F013F8AD
:1003E0007B681846FFF74EFF7B6818460837BD4606
:1003F000B0BD80B483B000AF78607B6818460C371E
:10040000BD4680BC704780B584B000AFF860B9606D
:100410007A60B968F86800F004F800BF1037BD468C
:1004200080BD80B582B000AF786039603968786887
:1004300000F004F800BF0837BD4680BD80B483B02B
:1004400000AF7860396000BF0C37BD4680BC704794
:1004500080B500AF4FF6FF710120FFF78FFF80BD21
:100460000B460146184600F083BD00F0D3BC0023C4
:100470001A4630B510F8015B05F07F049440234321
:100480002C0602F10702F5D40B6030BD00231A469A
:1004900030B510F8014B04F07F0595402B4325063D
:1004A00002F10702F5D41F2A06D8640642BF4FF0B6
:1004B000FF3404FA02F213430B6030BD50282DE9DB
:1004C000F3410646884615461F4608D1D01C20F049
:1004D000030050F8044B3C6002B0BDE8F08100F02E
:1004E0000F030C2B2ED8DFE803F025071D25292D3F
:1004F0002D2D2D1821252900284601A9FFF7B7FF2A
:10050000019C002CE7D006F07003102B08BFA84612
:100510003306444448BF2468DDE7284601A9FFF7B5
:10052000B5FFEDE7284630F8024BEAE7284630F9F8
:10053000024BE6E7284650F8044BE2E7284650F81D
:10054000084BDEE700F056FC08B50346FF2B0846D3
:100550000DD003F07003302B0FD004D8202B08D01F
:1005600005D900F047FC402B0BD0502BF9D10020CF
:1005700008BDBDE8084001F0F1BBBDE8084001F04E
:10058000EABBBDE8084001F0D8BB70B50C46014697
:10059000204615461E46FFF7D7FF334601462A463A
:1005A0002046BDE87040FFF789BF73B50C4615467D
:1005B000064608B101F0C1FB2246286012F8011B73
:1005C000FF291CD030462B1DFFF7DFFF02461046E7
:1005D00010F8013BFF2B14D0102301A92B75FFF756
:1005E00046FF019B0344EB6010F8013B01A96B75CA
:1005F000FFF73DFF019B03442B6102B070BD6860B3
:10060000E5E72B750023EEE71FB503AB009300234E
:100610000A46194600F051FF039805B05DF804FB47
:1006200000232DE9F04F93B0079300F00303012B53
:1006300006460C46154610D0022B03D0002B5DD188
:1006400003075DD52946204601F062FB18B1092059
:1006500013B0BDE8F08F0820FAE7070745D502235D
:1006600006F008061E430CAB009300230C2219462B
:1006700028460C9400F045FF062E43D1D4E90A73B6
:10068000D4F83080B8F1000F00F03C819946002F7B
:10069000C0F23B81032600230DF12C091A461946AE
:1006A0002846CDF800900B9400F02BFF0023012288
:1006B00019462846CDF800900B9700F022FF0F2135
:1006C0002846FFF7A1FF002300F0010040EA0800E0
:1006D0000B900F2219462846CDF8009000F011FF2C
:1006E000022E00F02C810720B2E70F6A10460D2180
:1006F000FFF78AFF8742B2D10623B1E700F07AFB09
:100700000123ADE7284601F01DFB8146002899D062
:100710000CAA01462846FFF748FF9DF844B0294639
:1007200003905846FFF710FF0F2102900E902846C5
:10073000FFF76AFF039A20F0010808F1FF38109FC5
:1007400097420DD800270123B846F10700F1C58074
:10075000320740F1D480012B40F0CC8000F004F946
:100760009DF845A008AB51460020FFF70EFF51460B
:10077000024609AB0020FFF708FF0AAB02465146CC
:100780000020FFF702FF0BA9FFF771FE0C9B0899F1
:1007900002460B44434553D809990B444345CED9EF
:1007A000DDE90A30002B3FF44DAF0D9A03EB020850
:1007B00000283BD001383844B8F1000F3FF442AF75
:1007C00016F0080304933DD0472323704E23637033
:1007D0005523A3704323E370462323714F23637192
:1007E0005223A3710023E3710023039309A9FFF7A8
:1007F0004DFE0AA90590FFF749FE099F002F69D019
:1008000043DDBBF1FF0F3CD00BF00703042B3FF699
:1008100075AF01A252F823F087080008FD06000812
:1008200057080008870800087F080008B8F1000F83
:100830003FF408AFF0073FF505AF002702262AE78F
:100840003A467CE7E379012B0CBF54F8203C04F1D5
:1008500058030793C8E702220F99584602FB171264
:100860000BAB0299FFF72AFE0B9931B134B300228A
:10087000204607AB00F0ACF800B3032365E708227D
:10088000EAE70022E8E70422E6E76FF040420F9B28
:10089000D21B03EB820AC4B10499B1B9079BAAF138
:1008A000040A0B935AF8041F0029E6D000222046C0
:1008B0000BAB514400F08CF80028F3D00A980028C4
:1008C00041D0059B0344184690E753F82230002B93
:1008D000F4D1D2E701230393F0E70D212846079EC8
:1008E000FFF792FEC4E90A79C4E90806C4F830802B
:1008F0000620ADE6002FBFF6CDAE00F047F8012B85
:100900007FF4C5AE204600F0EDF80CAA4946284613
:10091000FFF74BFE29469DF84400FFF715FEFA430A
:100920000F9B03EB8203002253F8221029B9C4E97C
:100930000A200422C4E90C23ACE60132F4E7204685
:1009400000F096F8CFE6039B002B7FF473AF79E6B7
:1009500008B5804700F04EFA024B1868BFF35B8F72
:10096000704700BF0800002008B5FFF7F5FFFFF74C
:10097000EFFF08B58047FFF7F7FF0000024B18684C
:10098000BFF35B8F704700BF0400002008B5FFF77E
:10099000F5FFFFF7EEFF0378472B17D143784E2B77
:1009A00014D18378552B11D1C378432B0ED1037901
:1009B000432B0BD143792B2B08D183792B2B05D1DA
:1009C000C07901288CBF00200120704700207047AB
:1009D0002DE9F3411E4603780446472B0F4613D1F9
:1009E00043784E2B10D18378552B0DD1C378432BF0
:1009F0000AD10379462B07D143794F2B04D1837950
:100A0000522B01D1C2793AB32046FFF7C4FF024608
:100A100020B3E37954F8202C012B0EBF52F8785CF8
:100A2000154604F158022B6828469B6801929847A6
:100A3000B0B10224019B1B6801933B682946D3F89F
:100A400010803846012301AAC04758B1019B33608A
:100A5000204602B0BDE8F081034DE4E7034DE2E734
:100A60000124EAE70446F3E7E01D00080C1E000835
:100A700010B5044600F09EF802462046A4F120017D
:100A8000FFF789FF60B154F8043C0133012B44F8AF
:100A9000043C03D1936844F8083C9160012010BDE8
:100AA0009368002BF9D0FFF75FFF0378472B17D12E
:100AB00043784E2B14D18378552B11D1C378432B17
:100AC0000ED10379432B0BD143792B2B08D183799A
:100AD0002B2B05D1C07901288CBF00200120704745
:100AE0000020704710B5044648B100F039F82046A0
:100AF000FFF7DBFF18B154F8140CFFF729FFFFF7DD
:100B000033FF10B50246FFF7D0FF38B152F8184C4A
:100B1000104600F025F82046FFF72BFF104600F0A6
:100B20001FF8FFF733FF0378472B17D143784E2B7D
:100B300014D18378552B11D1C378432B0ED103796F
:100B4000432B0BD143792B2B08D183792B2B05D148
:100B5000C07901288CBF0020012070470020704719
:100B600038B5044600F026F8024605682046A4F190
:100B70002001FFF7D8FF28B90DB1FFF7F5FE11608E
:100B8000284638BD54F80C3C2046002BB4BFC3F1B6
:100B90000103013344F80C3C53688D4203F1FF33E9
:100BA00053601CBF44F8105C1160656A00F084FC5F
:100BB000E6E770470048704788000020024A034972
:100BC0000348FFF74DBC00BF00000020B30B000836
:100BD0008800002010B50446024B036000F0B4F812
:100BE000204610BD501E000810B50446FFF7F2FF66
:100BF00020460C2100F0FCF8204610BD2DE9F04104
:100C0000DDF81880064690450F4615461C460BD069
:100C1000B0682A460368CDF818801E6A3946234614
:100C2000B446BDE8F0416047194600F057F8002887
:100C3000EED00620BDE8F0812DE9F14F0D46DDE94B
:100C40000A4BDDE90CA6194681461746984600F086
:100C500045F890B1002D3460377109DB2C44A24572
:100C600014BF01240624B471002001B0BDE8F08F48
:100C70000235F9D10123B371F6E7544506D159463F
:100C8000484600F02BF808B17771EDE7D9F8080075
:100C90003A460368CDE90CA6CDE90A4BDC69294642
:100CA0004346A44601B0BDE8F04F60472DE9F0414E
:100CB00007460C4615461E4600F079F848B9B86854
:100CC0002A46036821469F693346BC46BDE8F04189
:100CD0006047BDE8F081704700207047814208B549
:100CE0000ED0406803782A2B0CD049680B782A2B49
:100CF00008BF0131FFF784F9B0FA80F0400908BD60
:100D00000120FCE70020FAE77FB500241023CDE99D
:100D10000234036815469E69CDE900446B461268AB
:100D2000B0479DF8043003F00603062B09BF0120ED
:100D30002046009B2B6004B070BD009890420CBF11
:100D4000062001207047000010B50446024B0360E6
:100D5000FFF7C1FF204610BDC41E000810B50446B1
:100D6000FFF7F2FF2046082100F042F8204610BDB0
:100D70002DE9F041DDF818801F46DDE9083498457B
:100D80000646154607D10799FFF7A8FF18B1657108
:100D90000020BDE8F08139463046FFF79FFF00286C
:100DA000F6D00123C4F800802571A371F0E738B5AF
:100DB00015461C46FFF792FF20B10823E360062387
:100DC0002560237138BD2DE9F04105460C461646D5
:100DD0001F46FFF783FF48B9032F07D82368324621
:100DE00029462046BDE8F0415B691847BDE8F0811F
:100DF000FFF73BBB062008B500F0F0F8012000F03B
:100E0000DDFF0000024B0146186800F02DB800BF5E
:100E10000C000020024B0146186800F06BB900BFBF
:100E20000C00002070B50F4E0C463168054611B914
:100E300000F0F0F830602146284600F0EBF8431C43
:100E400003D14FF0FF34204670BDC41C24F00304CE
:100E5000A042F8D0211A284600F0DCF80130F2D187
:100E6000EFE700BF940000202DE9F041CD1C25F0F4
:100E7000030508350C2D38BF0C25002D064601DB77
:100E8000A94204D90C2333600020BDE8F081314F22
:100E900000F062F83B681C4644BB29463046FFF729
:100EA000C1FF431C044650D13C682146002941D172
:100EB000002C44D02368304604EB030800F0AAF865
:100EC00080453CD1216830466D1A2946FFF7AAFFBC
:100ED000013034D023682B4423603B68002B36D08C
:100EE0005A68A24229D100225A600EE02268521BA1
:100EF0001DD40B2A16D96119A342256018BF596069
:100F0000636808BF396062514B60304600F02AF8D0
:100F100004F10B00231D20F00700C21AB5D01B1AE4
:100F2000A350B2E7A3426268DED13A60EDE7234600
:100F30006468B1E70C464968B8E71346CEE70C236E
:100F40003046336000F00EF89EE70560DDE75B6039
:100F5000FFDE00BF98000020014800F06BB800BF22
:100F6000D8010020014800F066B800BFD801002079
:100F700010B504460448134620B10A460220214613
:100F800000F05AF810BD00BF391000081F2938B50D
:100F900005460C4604D9162303604FF0FF3038BDD8
:100FA000C26B12B152F821304BB9284600F030F82C
:100FB000224601462846BDE8384000F017B8012B0C
:100FC0000AD0591C03D1162303600120E7E7002152
:100FD000204642F8241098470020E0E7024B0146E3
:100FE0001868FFF7D3BF00BF0C00002038B50023FE
:100FF000064D0446084611462B6000F0C9FE431C0E
:1010000002D12B6803B1236038BD00BFD40100209A
:1010100000F0B6BE38B50023054D044608462B60E7
:1010200000F0BEFE431C02D12B6803B1236038BD23
:10103000D4010020704770472DE9F843284D07463A
:10104000286891460E469846FFF7F4FF254A146833
:101050003CB9254B1360254A12B11268C3F88820A9
:10106000214C63681F2B06DD2868FFF7E4FF4FF073
:10107000FF30BDE8F8833FB3D4F8880068B91C4B53
:10108000002BF1D04FF48470FFF7BCFE0028EBD0AA
:101090000023C0E94033C4F8880001226368022FAE
:1010A00040F8239002FA03F200EB8301D0F80031FC
:1010B00043EA0203C0F80031C1F8808002BFD0F8D3
:1010C00004311343C0F80431636828685A1C0233A2
:1010D000626044F82360FFF7AEFF0020C9E700BF5D
:1010E0005C00002068020020DC010020E81E0008EF
:1010F000050E000838B50546002940D051F8043CDB
:101100000C1F002BB8BFE418FFF726FF1C4A13681A
:1011100033B9636014602846BDE83840FFF722BF4A
:10112000A34208D9206821188B4201BF19685B6867
:1011300009182160EDE71A465B680BB1A342FAD9A2
:1011400011685018A0420BD1206801445018834206
:101150001160E0D118685B68084410605360DAE7FA
:1011600002D90C232B60D6E7206821188B4201BFDF
:1011700019685B680918216063605460CBE738BD6B
:101180009800002003685A004CBF43F0004323F04E
:101190000043184470472DE9F0470646174641B30F
:1011A000013988464FF0000909EB080404EBD474B8
:1011B000641006EBC4052846FFF7E4FFA1424FEA9E
:1011C000C40A04D1B84204D82846BDE8F087B84222
:1011D00004D9A1450DD004F1FF38E5E70AF1080074
:1011E0003044FFF7CFFF0138B842EDD204F10109D6
:1011F000DAE70025E8E70000012806D0022806D03B
:101200000028044818BF002070470348704703486F
:10121000704700BF051800080B18000811180008D7
:101220001F4B37B504468D1E4BB1284601A9AFF3BD
:10123000008048B900230920236103B030BD19485C
:10124000194B1B1ADB10019301992A46FFF7A3FFE4
:1012500001460028EED0FFF795FF4B68A064012BF4
:101260001AD0002B01F1040010DBFFF78BFF0023E5
:10127000C4E913030368002B0ADAC3F30360FFF722
:10128000BBFF03460028D5D00020D5E70123EFE7B8
:10129000FFF778FF0346F7E700230520CCE700BF00
:1012A00000000000541F000844200008036810B527
:1012B000DA07044605D49B0700F1480018D5FEF76D
:1012C000BDFE2368590703D404F1D000FEF7BEFE2B
:1012D00023681A0703D404F5A870FEF7BFFE23683D
:1012E000DB0608D404F5E870BDE81040FEF7FABE4E
:1012F000FEF79CFEE5E710BD0346006800B1184408
:101300007047704770B505460C462846216CFFF7BC
:1013100087FF064608B1FFF76DFD236C22466B611F
:10132000294601202B6998470828EED00728F2D1DA
:101330003046216CFFF7E5FF201DFEF76BFE2DE91F
:10134000F047ADF5727D03AD0C1DD0F80C90D0F8D0
:1013500018A0074616460FCC0FC50FCC0FC50FCCF3
:101360000FC594E80F0085E80F0000250DF108086F
:10137000C8F800503846D8F84010FFF751FF09363A
:101380000446F6B268BBD8F840304FF4F0724146DC
:101390007B617AA800F0E5FC3B69394630467AAAC1
:1013A00098470546889BC8F844303A463B46314644
:1013B0000120CDE9008AC847C0B9C4B94FF4F07222
:1013C00040467AA900F0CDFC082D2646D2D0072D44
:1013D0000CD12046D8F84010FFF793FF03A8FEF782
:1013E00019FED8F8383046F01006DCE7092420460C
:1013F0000DF5727DBDE8F087F0B5CB6BF9B00B64ED
:1014000001AC0D1D06460F460FCD0FC40FCD0FC406
:101410000FCD0FC495E80F0084E80F004FF0FF33A5
:10142000009330461099FFF7FBFE78B96A463146C3
:101430003369984708280446F3D06846FFF736FF1B
:10144000062C03D139463046FFF75CFF092079B0FE
:10145000F0BD10B48261DA6BC16010BC1A64194629
:101460000022FFF76CBF70B54369C66804460D469D
:101470000B6426B10122FFF762FFFFF7BBFC0A46AF
:101480000369014602209847072805D00828F4D1AF
:1014900029462046FFF736FF3046296CFFF731FF1B
:1014A000281DFEF7B7FDC2680AB9FFF7A5BFCA6BD2
:1014B0000A640022FFF743BF7047012910B50446B4
:1014C000084605D005D9C81E01288CBF022001207E
:1014D00010BD43B90F2A06D804EB82046168029A52
:1014E00018461160F4E70220F2E71FB503AB009342
:1014F00000230A461946FFF7E0FF039805B05DF8A0
:1015000004FB012910B50446084605D005D9C81EBC
:1015100001288CBF0220012010BD43B90F2A06D834
:10152000029904EB8204096818466160F4E702201E
:10153000F2E71FB503AB0093002303920A46194656
:10154000FFF7DFFF05B05DF804FBF0B5D36BADF539
:101550000F7D136417AD141D06460F460FCC0FC543
:101560000FCC0FC50FCC0FC594E80F0085E80F0016
:101570004FF0FF33169368462699FFF751FE90B956
:101580000C2116A86A46FFF7D4FF394616A8B047C3
:1015900048B969460820049B16AA984705280446BE
:1015A00002D00928E7D1092416A8FFF77FFE2046BC
:1015B0000DF50F7DF0BD00002DE9F04FCD6C174605
:1015C00055F8042B87B00C469A4600F003090495A1
:1015D0003BBB8DF815300323120203928DF81430B3
:1015E000236DB9F1020F08BFA56B13F0010322D1DF
:1015F00000F0080800932B6843BB384603A900F0AD
:1016000065FA002840F0FA80009BDBB10F213846D4
:10161000FFF76BFF0E2102463846FFF78AFF784A34
:1016200054E0130C8DF815301204DBB205EB830582
:1016300003920223D2E7384603A900F047FA0028B4
:1016400040F0DC80082007B0BDE8F08FBAF1020F4F
:101650000EBFD5F804B0B5F802B02B88A26C0CBF51
:1016600005F108062E1D0F2138462BF001050193C8
:101670001544FFF73AFF8542019B29D823F0010268
:101680002A44824294BF002201224FEA4B0000F01C
:10169000020003F0010340EA0305012D1AD0022DD8
:1016A0005ED0002D40F0AA80351DB9F1000FA2D008
:1016B000002AA0D03046FFF765FDA5630646204608
:1016C000FFF7D6F9002800F0998032460F213FE05D
:1016D0000022DAE7B9F1000F26D1002A3DD0736865
:1016E0003268991C4FEAD27200F0888004F15801E8
:1016F0000133029109D0301DFFF7FEFD02AB014618
:101700002046FFF765F9054638B30D213846FFF747
:10171000ECFE022D029B206202D1E36204F12C0355
:101720000620C4E909368EE70D213846FFF7DDFEB5
:10173000256A854211D1A36A9E420ED13046FFF739
:1017400021FD0F2102463846FFF7F3FE2246002115
:101750003846FFF7EEFE072075E706F108054AE771
:10176000356825F00045B9F1000F2AD1A2B1B8F1D2
:10177000000F19D085B9CB4617E0019B0BF1010B87
:1017800006EB8B000293FFF7B7FD0022014602AB88
:101790002046FFF71DF958B13368002B00DA0436F4
:1017A000013506EB850526E7C34604F1580301938E
:1017B000AB45E2D10D213846FFF797FE029B206230
:1017C000AEE70D213846FFF790FED4F820B08345F0
:1017D000E2D1A36A9E42DFD14FF0000B0423C4E99B
:1017E0000BB3F318A562636333685B4503DA681CC7
:1017F00006EB8000A3E701230093D1E7092022E74D
:10180000030B00080023FFF7D7BE0123FFF7D4BE68
:101810000223FFF7D1BE2DE9F041054614461E46CE
:10182000C2B0042925D8DFE811F005001C0024000F
:10183000D6000401EEB90121836B92B2043001FAA3
:1018400006F717421CBF53F8047B40F82670013698
:10185000102EF4D1A60400D4AB63002042B0BDE842
:10186000F081012E4FEA124794B204D13B19102B9C
:1018700041D90220F2E7052EFBD107EB0408B8F1AD
:10188000200FF6D80F2F4DD9002CE6D00368A046C4
:10189000580708D5284623F0040340F8D03BFEF74C
:1018A000D9FB0F2F48D96846FEF7D4FBAB6B102F3E
:1018B0003A4638BF10221C4642A901EBC2024FEA49
:1018C0004808A2F5C47208F1FF38101F4FEA8801DA
:1018D00002EB880254F804CB40F804CF8242F9D1DD
:1018E0000A1D012E134417D00F2FAB636FD9684622
:1018F000FEF7ACFBB1E7102FBBD00368DA0705D5C4
:1019000023F0030340F8483BFEF794FB20A8FEF7C2
:1019100091FBAB6B002C3FD10433AB6320A8FEF7E7
:1019200085FB9AE7B8F1100F03682DD9DC07A8F101
:10193000100842D45807ADD420A8FEF783FBC7F1A6
:1019400010046846FEF786FB640020AAAB6B02EB2E
:10195000C702013C101FA10002EB84021C4654F890
:1019600004CB40F804CF9042F9D10A1D1344B8F1DA
:10197000000F9CD1012ECFD00F2FAB633FF66DAF80
:1019800020A8FEF75BFB68E7D9070DD420A8FEF777
:1019900059FBAB6B002CF3D0640020AA4FF0000879
:1019A00002EBC702013CD5E723F0010343F0020339
:1019B00040F8483BFEF746FBE8E723F0010343F01D
:1019C000020340F8483BFEF73DFB2B68B2E720A836
:1019D000FEF734FB8BE7032E7FF44BAF97B207EB98
:1019E0001244102C4FEA12463FF643AF0368190722
:1019F00006D523F00803036000F5A870FEF750FB3E
:101A000020A8FEF74DFBAA6B20AB03EBC603F90041
:101A1000D41A03EBC707BB4203EB040005D10A4409
:101A2000AA6320A8FEF71AFB17E7006843F8040B27
:101A3000F1E7002E7FF41DAF102A3FF61AAF0368BE
:101A4000DA0606D523F01003036000F5E870FEF710
:101A500053FB20AE3046FEF74FFB00220121AB6B5B
:101A600001FA02F020421CBF53F8040B46F8220092
:101A70000132042AF4D13046AB63FEF733FBECE6C7
:101A8000027A03467AB9427A82B1013A42724268D6
:101A9000111D12684160026003221A721A68100E4A
:101AA00012021A607047013AD2B2F6E7B0207047CE
:101AB0001FB503AB009300230C221946FFF7FDFC72
:101AC000039805B05DF804FBFFF7F2BF2DE9F04382
:101AD00005460E464FF0000885B03046FFF7D0FFB0
:101AE000B028044615D1B8F1000F0ED103AC43461F
:101AF0000E22414628460094FFF7DFFC43460F22A2
:101B0000414628460094FFF7FCFC002005B0BDE8E4
:101B1000F08302061DD4002303AF19464FEA800963
:101B20000D2228460097FFF7C8FC5FFA89F9039B4E
:101B300009F1040914F0400F14BFA3EB09034B444F
:101B40000393002300970D2219462846FFF7D9FC7E
:101B5000C3E700F0F003802B18D104023046FFF7F2
:101B60008FFF0443B4F5004F01D10920CEE70023D5
:101B7000240119462846A2B2FFF74DFE0028F4D1F1
:101B800014F4004F18BF4FF00108A6E7902B0DD1B9
:101B900000F00D030D2BE8D0002303AF00F00F027F
:101BA000194628460097FFF788FCCAE7A02B13D1F7
:101BB000C3434FF47F6203F007031A41030702F4A3
:101BC0007F6201D542F48042002319462846FFF780
:101BD00022FE002881D0C8E7B02B46D1B12808D119
:101BE0003046FFF74DFF431EDBB20E2B0246EBD90A
:101BF000BBE7B22820D1002303AC0D2219462846AA
:101C00000094FFF75AFC3046FFF73AFF022700F036
:101C10007F0110F08003039A01FA07F105D102F564
:101C200001720A44039200948DE70A4430460392FD
:101C30000737FFF725FFEAE7B3280BD13046FFF758
:101C40001FFF0123020300F00F0002F47022013095
:101C50000243BAE700F0FC03B42B86D000F0070281
:101C60000132012342F40022AFE7C02B44D1C62841
:101C70000AD13046FFF704FF020300F00F000323F0
:101C800002F470220130E3E7C7280BD13046FFF79A
:101C9000F7FE431EDBB20E2B02463FF666AF002373
:101CA000042193E700F0F803C02B06D100F00F02E7
:101CB0000132032342F4202287E7C8280DD13046A1
:101CC000FFF7DEFE052300F0F00200F00F001032F7
:101CD000013040EA0232012178E7C9287FF445AF9C
:101CE0003046FFF7CDFE020300F00F0002F4702231
:101CF000013005230243EEE700F0F803D02B7FF418
:101D000034AF00F007020132052342F40022E2E77B
:101D10001FB50346DA6C0846536808320292032264
:101D2000190201911B0E01A98DF80C208DF80D30C0
:101D3000FFF7CCFE05B05DF804FB08B5FFF7C4FE65
:101D4000806C08BD08B5FFF7BFFEC06CC3790233D5
:101D500000EB830008BD08B5FFF74CF808B5FFF7A6
:101D6000FAFF0A44914200F1FF3300D1704710B5E9
:101D700011F8014B914203F8014FF9D110BD000059
:101D80005822024B4FF0FF301A607047D4010020F8
:101D90005822024B4FF0FF301A607047D4010020E8
:101DA000044A05491368002B08BF0B46184410600D
:101DB000184670477403002078030020FEE700BF38
:101DC0004E31305F5F637878616269763131355FBB
:101DD0005F666F726365645F756E77696E644500F8
:101DE000C41E0008C01D00084E31305F5F63787864
:101DF000616269763131395F5F666F726569676EFE
:101E00005F657863657074696F6E4500C41E000875
:101E1000E81D00084E31305F5F6378786162697653
:101E20003132305F5F73695F636C6173735F7479C4
:101E300070655F696E666F4500000000501E000807
:101E4000141E0008B01E0008000000003C1E000820
:101E5000D50B0008E90B0008D90C0008D90C0008C4
:101E6000C70D0008090D0008AD0C0008390C00086A
:101E7000FD0B0008537439747970655F696E666F85
:101E800000000000C41E0008741E00084E31305FC0
:101E90005F637878616269763131375F5F636C6167
:101EA00073735F747970655F696E666F45000000DB
:101EB000501E00088C1E0008841E00080000000050
:101EC000B01E0008490D00085D0D0008D90C00087F
:101ED000D90C0008C70D0008090D0008AF0D000857
:101EE000710D00083B0D00086C020020F8B500BF22
:101EF000F8BC08BC9E467047F8B500BFF8BC08BCEB
:041F00009E46704742
:101F04001DE7FF7F84019701B0B0B008FFFF010017
:101F140003970181B0B008840000000001E7FF7F4F
:101F240084019701B0B0B00BFFFF0100039701815A
:101F3400B0B008840000000008B10181B0B0008492
:101F44000000000008B10181B0B00084000000006E
:101F5400ACE0FF7F0100000028E3FF7FA4FFFF7FC8
:101F640052E3FF7F010000009CE3FF7FA4FFFF7F9B
:101F7400BAE3FF7F0100000040E4FF7FA0FFFF7F82
:101F84006EE4FF7F010000007AE4FF7FA0FFFF7F83
:101F94008EE4FF7F0100000084F2FF7FB0A902807D
:101FA40008F3FF7FB0B0A8804CF3FF7F010000006E
:101FB40050F3FF7FB0B0AA8082F3FF7FAE71B2808E
:101FC40034F4FF7FAB3F388086F4FF7F01000000CC
:101FD40092F4FF7FB0B0AA80CAF4FF7F0100000032
:101FE40066F5FF7FAB0EB280CCF5FF7FB0AF068005
:101FF40010F8FF7F010000001AF8FF7FAC3F01805A
:102004007CFAFF7F01000000A4FAFF7F00840480B3
:10201400B4FAFF7F01000000B0FAFF7FB0AD048086
:10202400ECFCFF7F008404800EFDFF7F0CFFFF7F2C
:1020340010FDFF7F10FFFF7F1AFDFF7F01000000EE
:0C204400E501000851040008BD0B000875
:04205000C1010008C2
:102054000000000069090008F50D000810000020C8
:10206400000000009C000020040100206C010020FE
:10207400000000000000000000000000000000005C
:10208400000000000000000000000000000000004C
:10209400000000000000000000000000000000003C
:1020A400000000000000000000000000D901002032
:0400000508000000EF
:00000001FF
